{
  "_format": "hh-sol-artifact-1",
  "contractName": "AnswerToEarn",
  "sourceName": "contracts/AnswerToEarn.sol",
  "abi": [
    {
      "inputs": [
        {
          "internalType": "uint256",
          "name": "_serviceFee",
          "type": "uint256"
        }
      ],
      "stateMutability": "nonpayable",
      "type": "constructor"
    },
    {
      "anonymous": false,
      "inputs": [
        {
          "indexed": false,
          "internalType": "uint256",
          "name": "id",
          "type": "uint256"
        },
        {
          "indexed": false,
          "internalType": "string",
          "name": "actionType",
          "type": "string"
        },
        {
          "indexed": true,
          "internalType": "address",
          "name": "executor",
          "type": "address"
        },
        {
          "indexed": false,
          "internalType": "uint256",
          "name": "timestamp",
          "type": "uint256"
        }
      ],
      "name": "Action",
      "type": "event"
    },
    {
      "anonymous": false,
      "inputs": [
        {
          "indexed": true,
          "internalType": "address",
          "name": "previousOwner",
          "type": "address"
        },
        {
          "indexed": true,
          "internalType": "address",
          "name": "newOwner",
          "type": "address"
        }
      ],
      "name": "OwnershipTransferred",
      "type": "event"
    },
    {
      "inputs": [
        {
          "internalType": "uint256",
          "name": "qid",
          "type": "uint256"
        },
        {
          "internalType": "string",
          "name": "comment",
          "type": "string"
        }
      ],
      "name": "addAnswer",
      "outputs": [],
      "stateMutability": "nonpayable",
      "type": "function"
    },
    {
      "inputs": [
        {
          "internalType": "uint256",
          "name": "fee",
          "type": "uint256"
        }
      ],
      "name": "changeFee",
      "outputs": [],
      "stateMutability": "nonpayable",
      "type": "function"
    },
    {
      "inputs": [
        {
          "internalType": "string",
          "name": "title",
          "type": "string"
        },
        {
          "internalType": "string",
          "name": "description",
          "type": "string"
        },
        {
          "internalType": "string",
          "name": "tags",
          "type": "string"
        }
      ],
      "name": "createQuestion",
      "outputs": [],
      "stateMutability": "payable",
      "type": "function"
    },
    {
      "inputs": [
        {
          "internalType": "uint256",
          "name": "qid",
          "type": "uint256"
        }
      ],
      "name": "deleteQuestion",
      "outputs": [],
      "stateMutability": "nonpayable",
      "type": "function"
    },
    {
      "inputs": [
        {
          "internalType": "uint256",
          "name": "qid",
          "type": "uint256"
        },
        {
          "internalType": "uint256",
          "name": "id",
          "type": "uint256"
        }
      ],
      "name": "getAnswer",
      "outputs": [
        {
          "components": [
            {
              "internalType": "uint256",
              "name": "id",
              "type": "uint256"
            },
            {
              "internalType": "uint256",
              "name": "qid",
              "type": "uint256"
            },
            {
              "internalType": "string",
              "name": "comment",
              "type": "string"
            },
            {
              "internalType": "address",
              "name": "owner",
              "type": "address"
            },
            {
              "internalType": "bool",
              "name": "deleted",
              "type": "bool"
            },
            {
              "internalType": "uint256",
              "name": "created",
              "type": "uint256"
            },
            {
              "internalType": "uint256",
              "name": "updated",
              "type": "uint256"
            }
          ],
          "internalType": "struct AnswerToEarn.AnswerStruct",
          "name": "",
          "type": "tuple"
        }
      ],
      "stateMutability": "view",
      "type": "function"
    },
    {
      "inputs": [
        {
          "internalType": "uint256",
          "name": "qid",
          "type": "uint256"
        }
      ],
      "name": "getAnswers",
      "outputs": [
        {
          "components": [
            {
              "internalType": "uint256",
              "name": "id",
              "type": "uint256"
            },
            {
              "internalType": "uint256",
              "name": "qid",
              "type": "uint256"
            },
            {
              "internalType": "string",
              "name": "comment",
              "type": "string"
            },
            {
              "internalType": "address",
              "name": "owner",
              "type": "address"
            },
            {
              "internalType": "bool",
              "name": "deleted",
              "type": "bool"
            },
            {
              "internalType": "uint256",
              "name": "created",
              "type": "uint256"
            },
            {
              "internalType": "uint256",
              "name": "updated",
              "type": "uint256"
            }
          ],
          "internalType": "struct AnswerToEarn.AnswerStruct[]",
          "name": "Answers",
          "type": "tuple[]"
        }
      ],
      "stateMutability": "view",
      "type": "function"
    },
    {
      "inputs": [
        {
          "internalType": "uint256",
          "name": "qid",
          "type": "uint256"
        }
      ],
      "name": "getQuestion",
      "outputs": [
        {
          "components": [
            {
              "internalType": "uint256",
              "name": "id",
              "type": "uint256"
            },
            {
              "internalType": "string",
              "name": "title",
              "type": "string"
            },
            {
              "internalType": "string",
              "name": "description",
              "type": "string"
            },
            {
              "internalType": "address",
              "name": "owner",
              "type": "address"
            },
            {
              "internalType": "address",
              "name": "winner",
              "type": "address"
            },
            {
              "internalType": "bool",
              "name": "paidout",
              "type": "bool"
            },
            {
              "internalType": "bool",
              "name": "deleted",
              "type": "bool"
            },
            {
              "internalType": "uint256",
              "name": "updated",
              "type": "uint256"
            },
            {
              "internalType": "uint256",
              "name": "created",
              "type": "uint256"
            },
            {
              "internalType": "uint256",
              "name": "answers",
              "type": "uint256"
            },
            {
              "internalType": "string",
              "name": "tags",
              "type": "string"
            },
            {
              "internalType": "uint256",
              "name": "prize",
              "type": "uint256"
            }
          ],
          "internalType": "struct AnswerToEarn.QuestionStruct",
          "name": "",
          "type": "tuple"
        }
      ],
      "stateMutability": "view",
      "type": "function"
    },
    {
      "inputs": [],
      "name": "getQuestions",
      "outputs": [
        {
          "components": [
            {
              "internalType": "uint256",
              "name": "id",
              "type": "uint256"
            },
            {
              "internalType": "string",
              "name": "title",
              "type": "string"
            },
            {
              "internalType": "string",
              "name": "description",
              "type": "string"
            },
            {
              "internalType": "address",
              "name": "owner",
              "type": "address"
            },
            {
              "internalType": "address",
              "name": "winner",
              "type": "address"
            },
            {
              "internalType": "bool",
              "name": "paidout",
              "type": "bool"
            },
            {
              "internalType": "bool",
              "name": "deleted",
              "type": "bool"
            },
            {
              "internalType": "uint256",
              "name": "updated",
              "type": "uint256"
            },
            {
              "internalType": "uint256",
              "name": "created",
              "type": "uint256"
            },
            {
              "internalType": "uint256",
              "name": "answers",
              "type": "uint256"
            },
            {
              "internalType": "string",
              "name": "tags",
              "type": "string"
            },
            {
              "internalType": "uint256",
              "name": "prize",
              "type": "uint256"
            }
          ],
          "internalType": "struct AnswerToEarn.QuestionStruct[]",
          "name": "Questions",
          "type": "tuple[]"
        }
      ],
      "stateMutability": "view",
      "type": "function"
    },
    {
      "inputs": [],
      "name": "owner",
      "outputs": [
        {
          "internalType": "address",
          "name": "",
          "type": "address"
        }
      ],
      "stateMutability": "view",
      "type": "function"
    },
    {
      "inputs": [
        {
          "internalType": "uint256",
          "name": "qid",
          "type": "uint256"
        },
        {
          "internalType": "uint256",
          "name": "id",
          "type": "uint256"
        }
      ],
      "name": "payWinner",
      "outputs": [],
      "stateMutability": "nonpayable",
      "type": "function"
    },
    {
      "inputs": [],
      "name": "renounceOwnership",
      "outputs": [],
      "stateMutability": "nonpayable",
      "type": "function"
    },
    {
      "inputs": [],
      "name": "serviceFee",
      "outputs": [
        {
          "internalType": "uint256",
          "name": "",
          "type": "uint256"
        }
      ],
      "stateMutability": "view",
      "type": "function"
    },
    {
      "inputs": [
        {
          "internalType": "address",
          "name": "newOwner",
          "type": "address"
        }
      ],
      "name": "transferOwnership",
      "outputs": [],
      "stateMutability": "nonpayable",
      "type": "function"
    },
    {
      "inputs": [
        {
          "internalType": "uint256",
          "name": "qid",
          "type": "uint256"
        },
        {
          "internalType": "string",
          "name": "title",
          "type": "string"
        },
        {
          "internalType": "string",
          "name": "description",
          "type": "string"
        },
        {
          "internalType": "string",
          "name": "tags",
          "type": "string"
        }
      ],
      "name": "updateQuestion",
      "outputs": [],
      "stateMutability": "nonpayable",
      "type": "function"
    }
  ],
  "bytecode": "0x60806040523480156200001157600080fd5b50604051620028453803806200284583398101604081905262000034916200009f565b600160005562000044336200004d565b600455620000b9565b600180546001600160a01b038381166001600160a01b0319831681179093556040519116919082907f8be0079c531659141344cd1fd0a4f28419497f9722a3daafe3b4186f6b6457e090600090a35050565b600060208284031215620000b257600080fd5b5051919050565b61277c80620000c96000396000f3fe6080604052600436106100dd5760003560e01c80638da5cb5b1161007f578063a22c1bc911610059578063a22c1bc91461023d578063db88176f1461026a578063e93fa19c14610297578063f2fde38b146102aa57600080fd5b80638da5cb5b146101d357806397221ab7146101fb5780639a3c4c791461021d57600080fd5b8063715018a6116100bb578063715018a61461015a5780637491995a1461016f57806381e1dc941461018f5780638abdf5aa146101af57600080fd5b8063020c9945146100e25780631e59e02a146101045780636a1db1bf1461013a575b600080fd5b3480156100ee57600080fd5b506101026100fd366004611ffc565b6102ca565b005b34801561011057600080fd5b5061012461011f36600461201e565b610524565b60405161013191906120e4565b60405180910390f35b34801561014657600080fd5b5061010261015536600461201e565b610576565b34801561016657600080fd5b506101026105e0565b34801561017b57600080fd5b5061010261018a3660046121e9565b6105f4565b34801561019b57600080fd5b506101026101aa366004612230565b610831565b3480156101bb57600080fd5b506101c560045481565b604051908152602001610131565b3480156101df57600080fd5b506001546040516001600160a01b039091168152602001610131565b34801561020757600080fd5b50610210610ad9565b60405161013191906123ad565b34801561022957600080fd5b5061010261023836600461201e565b610e6b565b34801561024957600080fd5b5061025d610258366004611ffc565b61100b565b6040516101319190612402565b34801561027657600080fd5b5061028a61028536600461201e565b61112a565b604051610131919061241c565b6101026102a536600461242f565b611389565b3480156102b657600080fd5b506101026102c53660046124b7565b611675565b6102d26116ee565b60008281526005602052604090205460ff166103095760405162461bcd60e51b8152600401610300906124e0565b60405180910390fd5b600082815260076020908152604080832084845290915290205481146103645760405162461bcd60e51b815260206004820152601060248201526f105b9cddd95c881b9bdd08199bdd5b9960821b6044820152606401610300565b600082815260066020526040902060040154600160a01b900460ff16156103cd5760405162461bcd60e51b815260206004820152601960248201527f5175657374696f6e20616c72656164792070616964206f7574000000000000006044820152606401610300565b6000828152600660205260409020600301546001600160a01b03163314806103ff57506001546001600160a01b031633145b6104415760405162461bcd60e51b8152602060048201526013602482015272556e617574686f72697a656420656e7469747960681b6044820152606401610300565b6000828152600660205260408120600901546004549091906064906104669084612522565b6104709190612539565b6000858152600760209081526040808320878452825280832060030154888452600690925290912060040180546001600160a81b0319166001600160a01b03909216918217600160a01b1790559091506104c8611747565b60008681526007602090815260408083208884529091529020600501556104f8816104f3848661255b565b611766565b61051361050d6001546001600160a01b031690565b83611766565b5050506105206001600055565b5050565b6000818152600660205260409020600301546060906001600160a01b031633148061055957506001546001600160a01b031633145b1561056d57610567826117ff565b92915050565b61056782611a4d565b61057e611e3a565b60008111801561058f575060648111155b6105db5760405162461bcd60e51b815260206004820152601b60248201527f466565206d757374206265206265747765656e2031202d2031303000000000006044820152606401610300565b600455565b6105e8611e3a565b6105f26000611e94565b565b60008281526005602052604090205460ff166106225760405162461bcd60e51b8152600401610300906124e0565b600082815260066020526040902060040154600160a01b900460ff161561068b5760405162461bcd60e51b815260206004820152601860248201527f5175657374696f6e20616c726561647920706169646f757400000000000000006044820152606401610300565b60008151116106dc5760405162461bcd60e51b815260206004820152601860248201527f416e73776572206d757374206e6f7420626520656d70747900000000000000006044820152606401610300565b6106ea600380546001019055565b6106f2611f3d565b60035481526020810183905260408101829052336060820152610713611747565b60a0820152610720611747565b60c082015260008381526006602052604081206007018054916107428361256e565b909155505060008381526007602090815260408083208451845282529182902083518155908301516001820155908201518291906002820190610785908261260f565b50606082015160038201805460808501511515600160a01b026001600160a81b03199091166001600160a01b039093169290921791909117905560a0820151600482015560c090910151600590910155805133906000805160206126f9833981519152906107f1611747565b60408051928352606060208401819052600e908401526d105b9cddd95c8818dc99585d195960921b608084015282015260a00160405180910390a2505050565b60008481526005602052604090205460ff1661085f5760405162461bcd60e51b8152600401610300906124e0565b6000848152600660205260409020600701546001116108c05760405162461bcd60e51b815260206004820152601f60248201527f5175657374696f6e20616c7265616479207769746820616e73776572287329006044820152606401610300565b600083511161090c5760405162461bcd60e51b81526020600482015260186024820152775469746c6520206d757374206e6f7420626520656d70747960401b6044820152606401610300565b600082511161095d5760405162461bcd60e51b815260206004820152601e60248201527f4465736372697074696f6e20206d757374206e6f7420626520656d70747900006044820152606401610300565b60008151116109ae5760405162461bcd60e51b815260206004820152601760248201527f5461677320206d757374206e6f7420626520656d7074790000000000000000006044820152606401610300565b6000848152600660205260409020600301546001600160a01b03163314610a0e5760405162461bcd60e51b8152602060048201526014602482015273556e617574686f72697a656420656e746974792160601b6044820152606401610300565b6000848152600660205260409020600101610a29848261260f565b506000848152600660205260409020600201610a45838261260f565b506000848152600660205260409020600801610a61828261260f565b50610a6a611747565b600085815260066020526040902060050155336000805160206126f983398151915285610a95611747565b604080519283526060602084018190526010908401526f145d595cdd1a5bdb881d5c19185d195960821b608084015282015260a0015b60405180910390a250505050565b60606000805b600254811015610b3a5760066000610af88360016126cf565b8152602081019190915260400160002060040154600160a81b900460ff16610b285781610b248161256e565b9250505b80610b328161256e565b915050610adf565b508067ffffffffffffffff811115610b5457610b54612146565b604051908082528060200260200182016040528015610b8d57816020015b610b7a611f85565b815260200190600190039081610b725790505b5091506000805b600254811015610e655760066000610bad8360016126cf565b8152602081019190915260400160002060040154600160a81b900460ff16610e535760066000610bde8360016126cf565b81526020019081526020016000206040518061018001604052908160008201548152602001600182018054610c1290612587565b80601f0160208091040260200160405190810160405280929190818152602001828054610c3e90612587565b8015610c8b5780601f10610c6057610100808354040283529160200191610c8b565b820191906000526020600020905b815481529060010190602001808311610c6e57829003601f168201915b50505050508152602001600282018054610ca490612587565b80601f0160208091040260200160405190810160405280929190818152602001828054610cd090612587565b8015610d1d5780601f10610cf257610100808354040283529160200191610d1d565b820191906000526020600020905b815481529060010190602001808311610d0057829003601f168201915b505050918352505060038201546001600160a01b0390811660208301526004830154908116604083015260ff600160a01b8204811615156060840152600160a81b9091041615156080820152600582015460a0820152600682015460c0820152600782015460e082015260088201805461010090920191610d9d90612587565b80601f0160208091040260200160405190810160405280929190818152602001828054610dc990612587565b8015610e165780601f10610deb57610100808354040283529160200191610e16565b820191906000526020600020905b815481529060010190602001808311610df957829003601f168201915b50505050508152602001600982015481525050848380610e359061256e565b945081518110610e4757610e476126e2565b60200260200101819052505b80610e5d8161256e565b915050610b94565b50505090565b60008181526005602052604090205460ff16610e995760405162461bcd60e51b8152600401610300906124e0565b600081815260066020526040902060070154600111610efa5760405162461bcd60e51b815260206004820152601f60248201527f5175657374696f6e20616c7265616479207769746820616e73776572287329006044820152606401610300565b6000818152600660205260409020600301546001600160a01b03163314610f5a5760405162461bcd60e51b8152602060048201526014602482015273556e617574686f72697a656420656e746974792160601b6044820152606401610300565b610f646002611ee6565b6000818152600660209081526040808320600401805460ff60a81b1916600160a81b17905560059091529020805460ff19169055610fa0611747565b600082815260066020526040902060050155336000805160206126f983398151915282610fcb611747565b604080519283526060602084018190526010908401526f145d595cdd1a5bdb8819195b195d195960821b608084015282015260a00160405180910390a250565b611013611f3d565b6007600084815260200190815260200160002060008381526020019081526020016000206040518060e0016040529081600082015481526020016001820154815260200160028201805461106690612587565b80601f016020809104026020016040519081016040528092919081815260200182805461109290612587565b80156110df5780601f106110b4576101008083540402835291602001916110df565b820191906000526020600020905b8154815290600101906020018083116110c257829003601f168201915b505050918352505060038201546001600160a01b0381166020830152600160a01b900460ff161515604082015260048201546060820152600590910154608090910152905092915050565b611132611f85565b60066000838152602001908152602001600020604051806101800160405290816000820154815260200160018201805461116b90612587565b80601f016020809104026020016040519081016040528092919081815260200182805461119790612587565b80156111e45780601f106111b9576101008083540402835291602001916111e4565b820191906000526020600020905b8154815290600101906020018083116111c757829003601f168201915b505050505081526020016002820180546111fd90612587565b80601f016020809104026020016040519081016040528092919081815260200182805461122990612587565b80156112765780601f1061124b57610100808354040283529160200191611276565b820191906000526020600020905b81548152906001019060200180831161125957829003601f168201915b505050918352505060038201546001600160a01b0390811660208301526004830154908116604083015260ff600160a01b8204811615156060840152600160a81b9091041615156080820152600582015460a0820152600682015460c0820152600782015460e0820152600882018054610100909201916112f690612587565b80601f016020809104026020016040519081016040528092919081815260200182805461132290612587565b801561136f5780601f106113445761010080835404028352916020019161136f565b820191906000526020600020905b81548152906001019060200180831161135257829003601f168201915b505050505081526020016009820154815250509050919050565b60008351116113d55760405162461bcd60e51b81526020600482015260186024820152775469746c6520206d757374206e6f7420626520656d70747960401b6044820152606401610300565b60008251116114265760405162461bcd60e51b815260206004820152601e60248201527f4465736372697074696f6e20206d757374206e6f7420626520656d70747900006044820152606401610300565b600081511161146f5760405162461bcd60e51b815260206004820152601560248201527454616773206d75737420206e6f742020656d70747960581b6044820152606401610300565b600034116114b55760405162461bcd60e51b8152602060048201526013602482015272125b9cdd59999a58da595b9d08185b5bdd5b9d606a1b6044820152606401610300565b6114bd611f85565b6114cb600280546001019055565b600254815260208101849052604081018390526101408101829052346101608201523360608201526114fb611747565b60e0820152611508611747565b610100820152805160009081526006602090815260409091208251815590820151829190600182019061153b908261260f565b5060408201516002820190611550908261260f565b5060608201516003820180546001600160a01b0319166001600160a01b03928316179055608083015160048301805460a086015160c0870151939094166001600160a81b031990911617600160a01b931515939093029290921760ff60a81b1916600160a81b9115159190910217905560e082015160058201556101008201516006820155610120820151600782015561014082015160088201906115f5908261260f565b50610160919091015160099091015580516000908152600560205260409020805460ff19166001179055805133906000805160206126f98339815191529061163b611747565b604080519283526060602084018190526010908401526f145d595cdd1a5bdb8818dc99585d195960821b608084015282015260a001610acb565b61167d611e3a565b6001600160a01b0381166116e25760405162461bcd60e51b815260206004820152602660248201527f4f776e61626c653a206e6577206f776e657220697320746865207a65726f206160448201526564647265737360d01b6064820152608401610300565b6116eb81611e94565b50565b6002600054036117405760405162461bcd60e51b815260206004820152601f60248201527f5265656e7472616e637947756172643a207265656e7472616e742063616c6c006044820152606401610300565b6002600055565b6000611755426103e8612522565b611761906103e86126cf565b905090565b6000826001600160a01b03168260405160006040518083038185875af1925050503d80600081146117b3576040519150601f19603f3d011682016040523d82523d6000602084013e6117b8565b606091505b50509050806117fa5760405162461bcd60e51b815260206004820152600e60248201526d14185e5b595b9d0819985a5b195960921b6044820152606401610300565b505050565b60606000805b600354811015611861576000848152600760205260408120859161182a8460016126cf565b8152602001908152602001600020600101540361184f578161184b8161256e565b9250505b806118598161256e565b915050611805565b508067ffffffffffffffff81111561187b5761187b612146565b6040519080825280602002602001820160405280156118b457816020015b6118a1611f3d565b8152602001906001900390816118995790505b5091506000805b600354811015611a4557600085815260076020526040812086916118e08460016126cf565b81526020019081526020016000206001015403611a33576000858152600760205260408120906119118360016126cf565b81526020019081526020016000206040518060e0016040529081600082015481526020016001820154815260200160028201805461194e90612587565b80601f016020809104026020016040519081016040528092919081815260200182805461197a90612587565b80156119c75780601f1061199c576101008083540402835291602001916119c7565b820191906000526020600020905b8154815290600101906020018083116119aa57829003601f168201915b505050918352505060038201546001600160a01b0381166020830152600160a01b900460ff1615156040820152600482015460608201526005909101546080909101528483611a158161256e565b945081518110611a2757611a276126e2565b60200260200101819052505b80611a3d8161256e565b9150506118bb565b505050919050565b60606000805b600354811015611aaf5760008481526007602052604081208591611a788460016126cf565b81526020019081526020016000206001015403611a9d5781611a998161256e565b9250505b80611aa78161256e565b915050611a53565b508067ffffffffffffffff811115611ac957611ac9612146565b604051908082528060200260200182016040528015611b0257816020015b611aef611f3d565b815260200190600190039081611ae75790505b5091506000805b600354811015611a455760008581526007602052604081208691611b2e8460016126cf565b81526020019081526020016000206001015403611e2857600085815260066020526040902060040154600160a01b900460ff1615611ca657600085815260076020526040812090611b808360016126cf565b81526020019081526020016000206040518060e00160405290816000820154815260200160018201548152602001600282018054611bbd90612587565b80601f0160208091040260200160405190810160405280929190818152602001828054611be990612587565b8015611c365780601f10611c0b57610100808354040283529160200191611c36565b820191906000526020600020905b815481529060010190602001808311611c1957829003601f168201915b505050918352505060038201546001600160a01b0381166020830152600160a01b900460ff1615156040820152600482015460608201526005909101546080909101528483611c848161256e565b945081518110611c9657611c966126e2565b6020026020010181905250611e28565b600085815260076020526040812081611cc08460016126cf565b81526020019081526020016000206040518060e00160405290816000820154815260200160018201548152602001600282018054611cfd90612587565b80601f0160208091040260200160405190810160405280929190818152602001828054611d2990612587565b8015611d765780601f10611d4b57610100808354040283529160200191611d76565b820191906000526020600020905b815481529060010190602001808311611d5957829003601f168201915b505050505081526020016003820160009054906101000a90046001600160a01b03166001600160a01b03166001600160a01b031681526020016003820160149054906101000a900460ff161515151581526020016004820154815260200160058201548152505090506040518060600160405280602e8152602001612719602e91396040820152808584611e098161256e565b955081518110611e1b57611e1b6126e2565b6020026020010181905250505b80611e328161256e565b915050611b09565b6001546001600160a01b031633146105f25760405162461bcd60e51b815260206004820181905260248201527f4f776e61626c653a2063616c6c6572206973206e6f7420746865206f776e65726044820152606401610300565b600180546001600160a01b038381166001600160a01b0319831681179093556040519116919082907f8be0079c531659141344cd1fd0a4f28419497f9722a3daafe3b4186f6b6457e090600090a35050565b805480611f355760405162461bcd60e51b815260206004820152601b60248201527f436f756e7465723a2064656372656d656e74206f766572666c6f7700000000006044820152606401610300565b600019019055565b6040518060e0016040528060008152602001600081526020016060815260200160006001600160a01b0316815260200160001515815260200160008152602001600081525090565b60405180610180016040528060008152602001606081526020016060815260200160006001600160a01b0316815260200160006001600160a01b0316815260200160001515815260200160001515815260200160008152602001600081526020016000815260200160608152602001600081525090565b6000806040838503121561200f57600080fd5b50508035926020909101359150565b60006020828403121561203057600080fd5b5035919050565b6000815180845260005b8181101561205d57602081850181015186830182015201612041565b506000602082860101526020601f19601f83011685010191505092915050565b80518252602081015160208301526000604082015160e060408501526120a660e0850182612037565b6060848101516001600160a01b03169086015260808085015115159086015260a0848101519086015260c09384015193909401929092525090919050565b6000602080830181845280855180835260408601915060408160051b870101925083870160005b8281101561213957603f1988860301845261212785835161207d565b9450928501929085019060010161210b565b5092979650505050505050565b634e487b7160e01b600052604160045260246000fd5b600082601f83011261216d57600080fd5b813567ffffffffffffffff8082111561218857612188612146565b604051601f8301601f19908116603f011681019082821181831017156121b0576121b0612146565b816040528381528660208588010111156121c957600080fd5b836020870160208301376000602085830101528094505050505092915050565b600080604083850312156121fc57600080fd5b82359150602083013567ffffffffffffffff81111561221a57600080fd5b6122268582860161215c565b9150509250929050565b6000806000806080858703121561224657600080fd5b84359350602085013567ffffffffffffffff8082111561226557600080fd5b6122718883890161215c565b9450604087013591508082111561228757600080fd5b6122938883890161215c565b935060608701359150808211156122a957600080fd5b506122b68782880161215c565b91505092959194509250565b60006101808251845260208301518160208601526122e282860182612037565b915050604083015184820360408601526122fc8282612037565b915050606083015161231960608601826001600160a01b03169052565b50608083015161233460808601826001600160a01b03169052565b5060a083015161234860a086018215159052565b5060c083015161235c60c086018215159052565b5060e083810151908501526101008084015190850152610120808401519085015261014080840151858303828701526123958382612037565b61016095860151969095019590955250919392505050565b6000602080830181845280855180835260408601915060408160051b870101925083870160005b8281101561213957603f198886030184526123f08583516122c2565b945092850192908501906001016123d4565b602081526000612415602083018461207d565b9392505050565b60208152600061241560208301846122c2565b60008060006060848603121561244457600080fd5b833567ffffffffffffffff8082111561245c57600080fd5b6124688783880161215c565b9450602086013591508082111561247e57600080fd5b61248a8783880161215c565b935060408601359150808211156124a057600080fd5b506124ad8682870161215c565b9150509250925092565b6000602082840312156124c957600080fd5b81356001600160a01b038116811461241557600080fd5b602080825260129082015271145d595cdd1a5bdb881b9bdd08199bdd5b9960721b604082015260600190565b634e487b7160e01b600052601160045260246000fd5b80820281158282048414176105675761056761250c565b60008261255657634e487b7160e01b600052601260045260246000fd5b500490565b818103818111156105675761056761250c565b6000600182016125805761258061250c565b5060010190565b600181811c9082168061259b57607f821691505b6020821081036125bb57634e487b7160e01b600052602260045260246000fd5b50919050565b601f8211156117fa57600081815260208120601f850160051c810160208610156125e85750805b601f850160051c820191505b81811015612607578281556001016125f4565b505050505050565b815167ffffffffffffffff81111561262957612629612146565b61263d816126378454612587565b846125c1565b602080601f831160018114612672576000841561265a5750858301515b600019600386901b1c1916600185901b178555612607565b600085815260208120601f198616915b828110156126a157888601518255948401946001909101908401612682565b50858210156126bf5787850151600019600388901b60f8161c191681555b5050505050600190811b01905550565b808201808211156105675761056761250c565b634e487b7160e01b600052603260045260246000fdfeaee8e5d3bbb2f71a951b5632cee20f7ac487b9f8ab4f66a236f7694b13af7c6a48696464656e203e3e202a2a2a2a202a2a2a202a2a202a2a2a202a2a2a2a202a2a2a202a2a2a202a2a202a2a2a2aa2646970667358221220fcb6e6b40c8f46753cf4886cdf92873cbf160afab85bbf7bff26df675b61175564736f6c63430008110033",
  "linkReferences": {},
  "deployedLinkReferences": {}
}